:020000040800F2
:10000000E030002045020008BB320008DB2E00086B
:10001000B9320008430E00081D3E00080000000031
:10002000000000000000000000000000C5340008CF
:10003000010F000800000000BD3200080B36000868
:100040005F0200085F0200085F0200085F0200080C
:100050005F0200085F0200085F0200085F020008FC
:100060005F0200085F0200085F0200085F020008EC
:100070005F0200085F0200085F0200085F020008DC
:100080005F020008450E00085F0200085F020008DA
:100090005F0200085F0200085F020008030F00080B
:1000A0005F020008353800085F0200085F020008A0
:1000B0005F0200085F0200085F0200085F0200089C
:1000C0005F0200085F0200085F020008C1320008FA
:1000D0005F020008F93D0008053E0008113E0008D7
:1000E0005F0200085F0200085F0200085F0200086C
:1000F0005F0200085F0200085F0200085F0200085C
:100100005F0200085F0200085F0200085F0200084B
:100110005F0200085F0200085F0200085F0200083B
:100120005F0200085F0200085F020008510E00082D
:100130005F0200085F0200085F0200085F0200081B
:100140005F0200085F0200085F0200085F0200080B
:100150005F0200085F0200085F0200085F020008FB
:100160005F0200085F0200085F0200085F020008EB
:100170005F0200085F0200085F0200080000000044
:100180005F0200085F02000800F002F800F04AF881
:100190000AA090E8000C82448344AAF10107DA45E2
:1001A00001D100F03FF8AFF2090EBAE80F0013F0EA
:1001B000010F18BFFB1A43F0010318479C670000AA
:1001C000BC670000103A24BF78C878C1FAD852073B
:1001D00024BF30C830C144BF04680C6070470000C1
:1001E0000023002400250026103A28BF78C1FBD840
:1001F000520728BF30C148BF0B607047642900F028
:10020000F580002070471FB504F0E0FA00F0CEFD45
:1002100004000020002104F0C3FA401C60601FBDF0
:1002200010B510BD00F086FD1146FFF7ECFF03F09E
:1002300077FF00F0ADFD03B4FFF7F2FF03BC00F061
:10024000B9FD00000948804709480047FEE7FEE77E
:10025000FEE7FEE7FEE7FEE7FEE7FEE7FEE7FEE776
:1002600004480549054A064B70470000A5360008BA
:1002700089010008E02A0020E0300020E02C002066
:10028000E02C002053EA020C00F069802DE9F04BCD
:100290004FF00006002B1FBFB3FA83F503FA05F4F5
:1002A00024FA05F65E4012BF1643B2FA82F502FA4E
:1002B00005F4C5F120051EBF22FA05FC44EA0C0432
:1002C000203556EA044C4FEA144418BF641C4FF022
:1002D00000084FF00009904271EB030C39D300295C
:1002E00019BFB1FA81F701FA07F6B0FA80F700FA00
:1002F00007F6C7F120071EBF20FA07FC46EA0C06E6
:100300002037B6FBF4FCA7EB0507103F07F01F0BE7
:10031000CBF120060CFA0BFB2CFA06F644BFB346D1
:100320000026202FA4BF5E464FF0000B5BEA060CB0
:1003300008BF4FF0010B19EB0B09ABFB027C48EB3C
:100340000608C01B06FB02CC0BFB03CC71EB0C01B7
:10035000C1E70B46024641464846BDE8F08B13B55F
:100360004FF000004FF00001AFF30080BDE81C40EB
:10037000704700000FB41CB5074B06AA7B446946C2
:100380000090059800F0B5FA0020694600F0C4FA24
:100390001CBC5DF814FB00009905000070B5044614
:1003A00085690068C10601D5302600E02026C00717
:1003B00007D070BDD4E9012130469047206A401C27
:1003C00020626D1EF6D570BD70B504468569007853
:1003D000C00707D170BDD4E9012120209047206AD1
:1003E000401C20626D1EF6D570BD00002DE9F04165
:1003F0000646002410687529314616A510D0AFF3C3
:100400000080002802DA404213A507E031688A071D
:1004100001D512A502E0490704D511A5012401E088
:10042000AFF3008000210A2206F1240709E0B0FBA7
:10043000F2FCB0FBF2F302FB1C003030785418469B
:10044000491C0028F3D123462A463046BDE8F04136
:1004500000F0F1B9000000002D0000002B000000AA
:10046000200000002DE9F0474FF0000A89460446BD
:10047000C0F820A02046E1688847002876D02528CB
:1004800006D0D4E901219047206A401C2062F1E7A0
:10049000E168204600258847C4F81CA006460027CE
:1004A000C4F818A02A2E09D0304603F0C8FC38B38F
:1004B00004EB8708303EC8F8186019E059F8041BAF
:1004C000204604EB87029161E1688847012F0646C8
:1004D00018D1E069002820DA25F020051DE0D8F8C1
:1004E000180000EB800006EB40003038C8F8180018
:1004F0002046E1688847064603F0A1FC0028EED1BB
:10050000012F0AD02E2E08D12046E16888477F1C93
:100510000646022F45F02005C4DBA069002803DA57
:10052000404245F00105A061E80701D025F0100523
:10053000B6B1A6F14100192802D8203645F400656D
:100540004A463146204625604D46FFF757FE58B1D2
:10055000012806D0ED1D25F0070000F1080989E704
:1005600004E005F1040985E730468AE7206ABDE822
:10057000F08700000FB400B58DB010A9099000916C
:100580000B904FF0FF300A9000200C900648784402
:100590000690064878446A4607900F9909A800F02B
:1005A000D5F90DB05DF814FBDB030000F303000088
:1005B0002DE9FF5F1D464FF0FF3B91464FF00008CD
:1005C0005F46D5E90146A96901987F1C8847296AD9
:1005D000824688470028F6D1BAF1FF3F0CD0002EA2
:1005E00024F4C06419DD600614D5BAF12B0F09D0CC
:1005F000BAF12D0F0ED103E0584604B0BDE8F09FCC
:1006000044F48064A96901987F1C8847761E82465D
:10061000002E02DDBAF1300F03D0B9F1000F26D061
:1006200032E0A969761E01987F1C44F40074884763
:10063000002E824605DDBAF1780F06D0BAF1580FC8
:1006400003D0B9F1000F10D01EE0B9F1000F02D0B5
:10065000B9F1100F18D1A969761E01987F1C24F4F6
:10066000007488478246102002E0082000E00A203B
:10067000814609E0A96908FB0908761E01987F1CDC
:1006800044F4007488478246002E05DD49465046F2
:1006900000F047F90028EDDAE96901988847A005DC
:1006A00002D46FF00100A8E7E00725D1600613D55A
:1006B000600502D5C8F1000000E0404629680A1D27
:1006C0002A600968220501D5087015E0220701D5C6
:1006D000088011E008600FE02868011D29600068AB
:1006E000210502D580F8008006E0210702D5A0F898
:1006F000008001E0C0F8008038467EE710B5431C5A
:1007000002E010F8011B71B18107FAD14FF00132FC
:1007100002C88C1A8C4314EAC211F9D0C01A0A0616
:1007200003D0C01E10BDC01A10BD0A0401D0801E27
:1007300010BD0902FCD0401E10BD10B5203AC0F01B
:100740000B80B1E81850203AA0E81850B1E81850D2
:10075000A0E81850BFF4F5AF5FEA027C24BFB1E80F
:100760001850A0E8185044BF18C918C0BDE8104080
:100770005FEA827C24BF51F8043B40F8043B08BF89
:100780007047D20728BF31F8023B48BF11F8012B50
:1007900028BF20F8023B48BF00F8012B70474FF0FC
:1007A00000020429C0F0128010F0030C00F01B803E
:1007B000CCF1040CBCF1020F18BF00F8012BA8BF4C
:1007C00020F8022BA1EB0C0100F00DB85FEAC17C10
:1007D00024BF00F8012B00F8012B48BF00F8012BC3
:1007E00070474FF0000200B51346944696462039F4
:1007F00022BFA0E80C50A0E80C50B1F12001BFF4DA
:10080000F7AF090728BFA0E80C5048BF0CC05DF83F
:1008100004EB890028BF40F8042B08BF704748BF8D
:1008200020F8022B11F0804F18BF00F8012B704701
:100830007047704770472DE9F0470D46994692463C
:10084000044600F124080168880604D5E06921F017
:100850001001216000E00120A84201DD471B00E0FB
:100860000027A1697A1902EB0900081AA061207813
:10087000C00602D42046FFF791FD002608E0D4E927
:1008800001211AF806009047206A401C761C20625D
:100890004E45F4DB2078C0060AD52046FFF77EFDE2
:1008A00006E0D4E9012130209047206A401C2062F4
:1008B000381EA7F10107F4DC07E0D4E9012118F89C
:1008C00005009047206A401C2062281EA5F1010502
:1008D000F3DC2046FFF778FD2078000602D50220E1
:1008E000BDE8F0870120FBE701694A1C0261087836
:1008F000704700B58FB0CDE9013100210591054960
:100900007944CDE9031011466846FFF7ABFD0FB0FF
:1009100000BD0000E5FFFFFF0A6802F8010B0A6056
:1009200070473A2800D2303820F02002412A01D303
:10093000A2F13700884201D34FF0FF30704700002A
:10094000026811441378016018467047D160054968
:1009500079445161044979441162002111611146C1
:1009600000F02EB8EDFFFFFF53000000426842B1D7
:10097000016811F8013B23B1521EC0E9001218466C
:1009800070470121C160881E704742685AB1C36830
:10099000016843B983688B4205D0491E521CC0E9E7
:1009A0000012002070474FF0FF30704710B504462A
:1009B00000F0E6F90068005D00F0010010BD0000E5
:1009C0002DE9F34F4FF0000A0C4656468DB001203A
:1009D0000C9001F10C000B9062690B98012190477B
:1009E000051E2DD0252D2CD0216A8847C0B1626903
:1009F0000B9801219047216A88470028F7D1626946
:100A0000411E0B98904700E0761CA1690D9888471D
:100A1000216A88470028F7D1E1690D988847DBE70C
:100A2000A1690D988847A842074601D1761CD3E7F3
:100A3000E1690D9888477F1C02D1BAF1000F6FD091
:100A40006BE162690B9800273D46394690472A289A
:100A500004D162690B98012190470125DFF8D0820B
:100A600062690B9801219047A0F130010A290AD24E
:100A70004745E5DC07EB870100EB4107303FDFD45A
:100A800045F01005ECE7E90601D46FF000476C284B
:100A90000AD04C2814D0682815D06A280DD07428A4
:100AA0001CD07A281AD01DE062690B98012190476A
:100AB0006C2802D045F0040514E045F002050DE075
:100AC00045F020050AE062690B98012190476828EB
:100AD00002D045F0080505E045F4006562690B9811
:100AE00001219047C4E9015765283DD019DC5828F9
:100AF0007AD00CDC452837D004DC252826D04128C4
:100B00009ED131E046282FD0472899D12CE05B2890
:100B100077D0612828D063287CD0642823D15AE07C
:100B2000F6E06F2848D008DC66281DD067281BD067
:100B3000692821D06E2816D127E0702845D0732867
:100B400068D0752847D078280DD14DE0A1690D985F
:100B50008847252805463FF469AFE1690D98884725
:100B60006D1C3FF46AAFD8E00D9923466A466FF0DA
:100B70000100AFF30080C5E045F0400023464FF090
:100B800000026060A80736D43EE0E8077FF447AF74
:100B90002068011D21600068290501D506701BE74A
:100BA000290701D5068017E7A90703D5F117C0E982
:100BB000006111E706600FE745F0400023464FF063
:100BC00008026060A80716D41EE040F60E0125EA70
:100BD0000100606016E045F0400023464FF00A0235
:100BE0006060A80707D40FE045F040006060A807E8
:100BF00008D5234610220D996FF00100AFF3008055
:100C000080E007E0102223460D996FF00100FFF706
:100C1000CFFC77E04FF0000963284F46C8464B46AB
:100C2000CB4602D05B2806D038E0E80601D401208C
:100C3000A060012732E06269D4F80CB00B98012162
:100C400090475E2807D14FF0010949466269D4F800
:100C50000CB00B989047216939B900210A4603ABC3
:100C600043F82120491C0829FADBD8B3216949B38C
:100C700008F1010862690B98012190475D28F4D1C1
:100C8000B9F1000F09D0002003A951F82020D24368
:100C900041F82020401C0828F7DB03AB206900281E
:100CA00020794FEA40701ED05B462246CDF8008086
:100CB000CDE901970D9900286FF0010020DAAFF31C
:100CC00000801FE0C11703AA00EBD1614B1121F096
:100CD0001F0102EB8302411A13680120884003437D
:100CE0001360C7E719E00D99224600286FF0010054
:100CF000009702DAAFF3008004E0AFF3008001E078
:100D0000AFF3008000280ADA401C06D10C9820B10D
:100D10004FF0FF300FB0BDE8F08F5046FAE7E9071B
:100D200001D10AF1010A064400200C9054E60000AB
:100D3000CCCCCC0C754600F035F8AE4605006946C3
:100D4000534620F00700854618B020B5FFF788FA13
:100D5000BDE820404FF000064FF000074FF00008BC
:100D60004FF0000B21F00701AC46ACE8C009ACE83D
:100D7000C009ACE8C009ACE8C0098D467047000066
:100D800010B500F013F8001D10BD00BF153A0000AB
:100D900010B50446AFF300802046BDE81040FFF7D1
:100DA0004ABA0000004870477C2A0020004870477B
:100DB0009C2A002001491820ABBEFEE72600020055
:100DC0004FF0013C50F8042B51F8043B9A4221D1DA
:100DD000A2EB0C03934313EACC1317D150F8042B66
:100DE00051F8043B9A4215D1A2EB0C03934313EA4A
:100DF000CC130BD150F8042B51F8043B9A4209D183
:100E0000A2EB0C03934313EACC13DBD04FF00000AA
:100E1000704700BFD01A01BAB1FA81F101F0180190
:100E200022FA01F0CB40C1F12001DBB2C0B2C01AFE
:100E30002CFA01F3D11A914311EAC311E6D170479C
:100E40007047FEE7014800F0C3B800007C020020B4
:100E5000014800F0BDB800003403002001681823E9
:100E6000CAB2103AB2FBF3F2054B6FF30901032A41
:100E70009B5CC36500D9091D816508467047000069
:100E80009048000810B5014600208B698A6A4FF02F
:100E9000C07453B1B3F5005F15D072B1012A0CD004
:100EA000022A0AD0032A09D104E01AB1012A06D085
:100EB000022A03D1C96AC90100D5012010BDC96A3F
:100EC000A142FAD010BD002AF7D0012AF2D0022A9E
:100ED000F3D0032AF3D010BD30B50468256825F49B
:100EE00080252560046863608368402B036803D015
:100EF00099600068C26030BD9A600068C16030BD12
:100F0000704710B5802000F069FABDE810404FF43A
:100F1000807000F063BA72B6FEE72DE9F041044636
:100F2000876D00F055FB054694F835000026022831
:100F300006D08020606584F834600120BDE8F0812F
:100F40002068016821F0160101602068416921F0E4
:100F500080014161206C08B9A06C20B12068016853
:100F600021F0080101602068016821F001010160A1
:100F70000CE000F02DFB401B052807D92020606500
:100F8000032084F8350084F83460D7E720680068CF
:100F9000C007EED194F85C103F208840B860012073
:100FA00084F8350084F834600020C7E790F83510E5
:100FB000022903D08021416501207047052180F876
:100FC00035100068016821F00101016000207047C0
:100FD0002DE9F84304464FF00009CDF8009063482E
:100FE0004FF41651A56D0068B0FBF1F72E6894F828
:100FF0005C20082101FA02F030420FD0206802681C
:1010000052070BD5026822F00402026094F85C00DB
:101010008140A960606D40F00100606594F85C104B
:101020004FF0010808FA01F0304208D02168496900
:10103000090604D5A860606D40F00200606594F870
:101040005C1004208840304208D021680968890774
:1010500004D5A860606D40F00400606594F85C10F1
:1010600010208840304218D021680968090714D53B
:10107000A86020680168490304D50068000308D50A
:10108000A16C07E00168C90503D4016821F00801DB
:101090000160216C09B12046884794F85C1020203B
:1010A0008840304231D021680968C9062DD5A86032
:1010B00094F8350005282068016806D0490347D513
:1010C000006800031DD4616C1CE021F01601016072
:1010D0002068416921F080014161206C08B9A06C51
:1010E00020B12068016821F00801016094F85C10CB
:1010F0003F208840A86084F8358084F83490216DC2
:101100001FE0E16B09B120468847606D00282BD0B5
:10111000606DC00714D0052084F835002068016890
:1011200021F0010101600098401C0090B84203D8F2
:1011300020680068C007F6D184F8358084F83490C0
:10114000E16C002910D001B02046BDE8F04308470B
:101150000168C905D5D4016821F01001016084F847
:10116000358084F83490CCE7BDE8F8833C0000205B
:101170002DE9F041044600F02BFA05465CB102204F
:1011800084F83500002684F834602068016821F076
:10119000010101600DE00120BDE8F08100F018FAC6
:1011A000401B052805D920206065032084F8350000
:1011B000F2E720680068C007F0D121680A6820487B
:1011C0000240D4E901031843D4E903352B43184303
:1011D00063691843A3691843E3691843236A1843F2
:1011E0001043626A042A03D1D4E90B231A43104343
:1011F000086020684069656A20F0070128460D43B1
:10120000012704280CD1A06A0543E06A40B12046BA
:10121000FFF738FE20B14020606584F83570BAE7EA
:10122000206845612046FFF719FE94F85C203F21B5
:1012300091408160666584F835700020ACE700005D
:101240003F8010F02DE9F0410446866D90F834009F
:10125000002501280DD0012084F8340094F8357061
:101260000020012F07D084F8340002252846BDE86D
:10127000F0810220FBE7022784F835706065204684
:10128000FFF72AFE94F85C103F208840B060206889
:10129000016841F016010160206C20B120680168EE
:1012A00041F0080101602068016841F0010101601E
:1012B000DCE700002DE9F04F434D89B080286968D4
:1012C00003D0B0F5807F68D077E0012975D1DFF8D1
:1012D000FCB028684FF478484FF0000901264FF41D
:1012E000FC6A08B1012814D13848A968D0E9007413
:1012F00099B11422364903A8C5F80890FFF71DFAE2
:10130000CDE9004A3B46D222142103A8029602F0FE
:101310005DF9286802281ED04FE02D4914221439A7
:1013200003A8AE60FFF709FACDE900483B46D22298
:10133000142103A8029602F049F9234A40F2A4615D
:1013400028324FF46170C2E90010224A1368D96351
:1013500011680864DDE7A868A0B11D49142228318E
:1013600003A8C5F80890FFF7E8F9CDE901A65846AB
:10137000D22241680091142103A8DBF8003002F06A
:1013800025F91AE012491422143103A8AE60FFF7C0
:10139000D4F9CDE901865846EAE701290DD10C4878
:1013A0001838006800906846FFF7A8F982B24FF439
:1013B0007A736946084801F03FFD09B04FF4FA60BE
:1013C000BDE8F04F02F0FCBD00000020CC00002082
:1013D000F0470008DC0300206C040020044910B52D
:1013E0000A68024202D00860FFF764FF10BD0000E7
:1013F000143C01402DE9F84FDFF89C910022A9F13F
:10140000040B03274FF00F0C09F1040AABF1040E93
:1014100001250B6895402B40AB426ED10C7904F04E
:101420000304012C01D0022C15D18668540007FA60
:1014300004F826EA0806D1F80C8008FA04F848EA0D
:101440000608C0F808804468AC430D79C5F3001560
:101450009540254345600C79E443A40708D0C5684E
:10146000540007FA04F6B5438E68A6402E43C660C2
:101470000C7904F00304022C11D1D40800EB84068B
:10148000356A5407E40E0CFA04F825EA0805D1F889
:10149000108008FA04F848EA0508C6F820800568B4
:1014A000540007FA04F6B5430E7906F00306A64089
:1014B0002E4306604C6814F4403F66D0374C2568D4
:1014C00045F480452560246822F0030504F4804437
:1014D0000094334C05EB0408D8F808589407260FFD
:1014E0000CFA06F4A5432F4CA04201D1002424E0BD
:1014F0002D4CA04202D101241FE046E02B4CA0421B
:1015000001D1022419E02A4CA04201D1032414E0A5
:10151000284CA04201D104240FE0274CA04201D165
:1015200005240AE0254CA04201D1062405E0244C04
:10153000A04201D1072400E00824B4402C43C8F89D
:101540000848D9F800404D464E689C43F60200D545
:101550001C432C60DAF8004055464E689C43B602A6
:1015600000D51C432C60DBF800405D464E689C4370
:10157000B60300D51C432C60DEF8004075464E686B
:101580009C43F60300D51C432C60521C102AFFF428
:101590003FAFBDE8F88F0000083C014044380240EE
:1015A00000300140000002400004024000080240F8
:1015B000000C0240001002400014024000180240DB
:1015C000001C02400AB1816170470904FBE700007A
:1015D00001488068704700003000002070B50400AA
:1015E00025D094F83D00002520B984F83C502046D1
:1015F00000F0B8F8242084F83D002068016821F04C
:10160000010101602068016841F400410160206827
:10161000016821F40041016000F02AFA4D4B616835
:10162000994201D84C4900E04C49884201D201203E
:1016300070BD4B492268B0FBF1F1566826F03F06B9
:101640000E43566062689A4206D94FF4967251432F
:101650004FF47A72B1FBF2F12268491C166A26F047
:101660003F06314311626168994210D84900401E1B
:10167000B0FBF1F2521CC2F30B02042A01D2042087
:1016800022E0B0FBF1F0401CC0F30B001CE0A268AC
:10169000F2B301EBC10303EB0116431EB3FBF6F3F8
:1016A0005B1C43F480431B0549D092B301EBC1029C
:1016B00002EB0111401EB0FBF1F0401CC0F30B0027
:1016C00040F4804040F400402168CA694CF6FF7342
:1016D0009A431043C861D4E90710014320680268A7
:1016E00022F0C00211430160D4E9030101432068E4
:1016F000826848F2FF339A4311438160D4E90510B0
:1017000001432068C26822F0FF021143C16001E07A
:101710000EE016E02068016841F0010101602564D7
:10172000202084F83D00256384F83E50002070BDE1
:1017300001EB4106431EB3FBF6F35B1CB3E701204C
:10174000C2E701EB4101401EB0FBF1F0401CC0F3C9
:101750000B00B7E7A086010080841E0000093D0051
:1017600040420F0070B586B0064614216846FFF768
:1017700038F820493068884239D11F48002501686F
:1017800041F0020101600068694600F00200059026
:101790004FF4107000901220CDE901050320039052
:1017A000042004901548FFF725FE13481030016807
:1017B00041F4001101600068124C00F40010059023
:1017C0000F4820604FF0007060604020C4E90205BF
:1017D0000001C4E90405A561E56125622046656252
:1017E000FFF7C6FC08B1FFF796FB7463A66306B06B
:1017F00070BD000000540040303802400004024038
:10180000A06002407C0200200248816802781144F6
:1018100081607047300000200B4810B5016841F42A
:1018200000710160016841F480610160016841F468
:1018300080710160032000F06FF80F2000F006F8BF
:1018400000F024F8002010BD003C024070B50D4DA2
:1018500004464FF47A712878B1FBF0F00A49096820
:10186000B1FBF0F000F054FD48B9102C07D2002273
:101870002146501E00F030F800206C6070BD012041
:1018800070BD0000300000203C0000200A4808B570
:10189000016841F480410160006800F480400090DC
:1018A0000548001F016841F080510160006800F0A8
:1018B0008050009008BD000044380240002809DB39
:1018C00000F01F02012191404009800000F1E0205A
:1018D000C0F8001170470000F0B40E4B1B68C3F352
:1018E0000223C3F10704042C00D904241D1D072D75
:1018F00001D2002300E0DB1E012606FA04F56D1E6E
:101900000D409D409E40761E164045EA0601F0BC03
:1019100002F085BA0CED00E0064A00F007011068FD
:101920004FF6FF03184040EA0120034908431060C6
:10193000704700000CED00E00000FA052DE9F047CB
:101940000D46040065D0DFF81491D9F80000EFB21D
:1019500000F00700A84207D289F80070D9F800000B
:1019600000F00700A84254D120683D4E810712D5EF
:10197000400703D5306840F4E0503060207800071D
:1019800003D5306840F4604030603068A16820F0D2
:10199000F000084330602078C0072DD030496068DF
:1019A0000839012812D0022813D0032811D0096861
:1019B000890700292DDA316821F0030101433160E4
:1019C000FFF706FE804641F2883A0EE00968890377
:1019D000EFE709688901ECE7FFF7FAFDA0EB0801E2
:1019E000514502D90320BDE8F0873068616800F0F6
:1019F0000C00B0EB810FEFD1D9F80010484601F090
:101A00000701A94207D90770006800F00700A84243
:101A100001D00120E7E72078400705D53068E1686C
:101A200020F4E050084330602078000706D5306885
:101A3000216920F4604040EAC100306000F038F8CD
:101A40003168084AC1F30311515CC8400649086077
:101A500006480068FFF7FAFE0020C4E7003C024099
:101A600008380240984800083C000020340000205C
:101A70000448054900680968044AC1F38221515CA1
:101A8000C84070473C00002008380240A8480008C1
:101A90000448054900680968044AC1F34231515CB1
:101AA000C84070473C00002008380240A8480008A1
:101AB000154810B5006810F00C01144813D04310FD
:101AC00004290FD008290ED10F4C241F216801F0E2
:101AD0003F022168490207D52068C0F38810A0FBA7
:101AE000030106E0184610BD2168C1F38811A1FB6F
:101AF00000010023FEF7C6FB2168C1F30141491C28
:101B00004900B0FBF1F010BD083802400024F40099
:101B10002DE9F84F040075D02078DFF838A3C0070E
:101B2000AAF1040548D00AF104000168C1F381015B
:101B3000012908D00068C0F3810002280AD1DAF830
:101B40000000400206D52868800335D5606800286B
:101B5000E1D031E06068B0F5803F10D0B0F5A02F43
:101B6000286810D020F480302860286820F4802075
:101B700028606068A0B1FFF72BFD06460CE02868DE
:101B800040F48030F4E740F480202860F7E7FFF766
:101B90001FFD801B642871D828688003F7D50BE0EF
:101BA000FFF716FD064604E0FFF712FD801B6428D0
:101BB000F1D828688003F7D42078DFF89C9280075A
:101BC0004FF0000B3DD5A348001D016811F00C0F2C
:101BD00008D00068C0F3810002280AD1DAF80000BA
:101BE000400206D42868800715D5E068012809D18D
:101BF00011E0E068B8B10120C9F80000FFF7E8FC87
:101C0000064605E022E1FFF7E3FC801B0228C2D86C
:101C100028688007F7D52868216920F0F80040EA95
:101C2000C10028600DE0C9F800B0FFF7D1FC0646FE
:101C300004E0FFF7CDFC801B02281FD8286880072E
:101C4000F7D42078000722D5824F84486169703725
:101C500071B101210160FFF7BBFC064604E0FFF70C
:101C6000B7FC801B022809D838688007F7D50EE03A
:101C7000C0F800B0FFF7ACFC064605E082E0FFF7D5
:101C8000A7FC801B02287DD838688007F7D420780D
:101C9000400765D56F484FF000083C300068C00031
:101CA0000BD46C483C30016841F080510160006801
:101CB0004FF0010800F080500090694F3868C0056F
:101CC0000FD4386840F480703860FFF781FC064616
:101CD00004E0FFF77DFC801B022853D83868C0055C
:101CE000F7D55C4FA0686C3701280FD005283868FD
:101CF00010D020F001003860386820F0040038600F
:101D0000A068B0B1FFF764FC06460EE0386840F00A
:101D10000100F4E740F004003860F7E7FFF758FCF3
:101D2000811B41F28830814263D838688007F5D53D
:101D30000DE0FFF74DFC064606E0FFF749FC811B6E
:101D400041F28830814254D838688007F5D4B8F120
:101D5000000F05D03F483C30016821F08051016000
:101D6000A069B8B33B49091D0968C1F38101022983
:101D700046D00228584606D0C9F86000FFF728FC74
:101D8000044639E035E04F46C9F86000FFF720FC13
:101D9000064604E0FFF71CFC801B022829D82868AF
:101DA0008001F7D4D4E907010843A16A2D4A490804
:101DB00002EB0141626A41EA8211084394F82C1057
:101DC00040EA0161CAF8001001203866FFF700FC04
:101DD000044605E03CE0FFF7FBFB001B022808D8A7
:101DE00028688001F7D533E0FFF7F2FB001B0228DB
:101DF00002D90320BDE8F88F28688001F4D427E0D9
:101E00000128F7D0DAF80000E26900F4800191427D
:101E10001CD1226A00F03F01914217D147F6C071F0
:101E2000626A0140B1EB821F10D1A26A4FF0FF330A
:101E300000F4403103EB5202B1EB024F06D194F8AB
:101E40002C1000F07060B0EB016F01D00120D1E7E1
:101E50000020CFE70438024000004742800E47428E
:101E6000007000400000FFFF7047000038B50168B7
:101E700004464A688868C043430606D5C30704D1B0
:101E8000D3435B0601D4216C05E0830708D4D34318
:101E90001B0605D4616C01B02046BDE83040084700
:101EA000830603D5430601D5C30551D4D3439B060E
:101EB0004ED443060AD494F85130032B49D0636DB5
:101EC00043F004036365CB688B680093830609D4F1
:101ED000636D43F0010363658B6800930B6823F027
:101EE00040030B60C00506D4606D40F008006065DB
:101EF000206880680090606D002829D020684168C3
:101F000021F0E0014160012084F85100900701D4E4
:101F1000D00722D02068416821F003014160114DB3
:101F2000E06C40B10565E06CFFF740F818B1606DFA
:101F300040F040006065A06C002809D00565A06CE9
:101F4000FFF734F8002803D0606D40F04000606572
:101F500038BDC8688868009038BD2046FFF784FF08
:101F600038BD0000CD32000870B5040009D0606AA9
:101F7000002540B125616561A56294F8510040B12A
:101F80000CE0012070BD6068B0F5827FF4D0E5619F
:101F9000F2E784F85050204600F044F8022084F81C
:101FA00051002068016821F040010160A08821896A
:101FB00000F4827001F404410843A18901F4006136
:101FC0000843217C01F002010843217D01F0010159
:101FD0000843218B01F400710843217F01F038018F
:101FE000084394F8201001F080010843218D01F48A
:101FF0000051084321680860A069042101EA1040EB
:1020000094F8241001F0100108432168486020680A
:10201000C16921F40061C1616565012084F8510046
:10202000002070BD70B586B0064614216846FEF7E4
:10203000D8FB24493068884242D1234800250168F2
:1020400041F480510160006800F4805005901E4802
:102050001438016841F0010101600068694600F030
:1020600001000590A02000900220CDE90105032089
:102070000390052004901548FFF7BCF9154C14484F
:1020800020604FF0C06060604020C4E9020500019C
:102090002061400060618000C4E906052562204699
:1020A0006562FFF765F808B1FEF735FFB4640022FA
:1020B00011462320A663FFF70FFC2320FFF7FEFB4A
:1020C00006B070BD003001404438024000000240BC
:1020D00058640240340300202DE9F84F1D4617468E
:1020E0008A460446FFF774FA064694F85100012820
:1020F00026D1BAF1000F77D0002F75D094F8500098
:1021000001281DD04FF0010984F85090032084F875
:1021100051004FF00008C4F85480C4F830A0A786DE
:10212000E786C4F83880A4F83C80A4F83E80C4F860
:102130004480C4F84080A068B0F5004F03D00CE0A4
:102140000220BDE8F88F2068016821F0400101609D
:102150002068016841F480410160206801684906F7
:1021600003D4016841F040010160E068B0F5006F00
:10217000606803D028B3012F23D03FE008B1012FBE
:102180001BD1206B21680088C86006E02068816848
:10219000890709D5216B0988C160206B801C2063E9
:1021A000E08E401EE08608E0FFF712FA801BA8428E
:1021B00002D3681C01D02FE075B3E08E0028E5D172
:1021C0001FE0206B21680078087306E020688168B2
:1021D00089070AD5216B09780173206B401C2063A5
:1021E000E08E401EE08609E027E0FFF7F1F9801B52
:1021F000A84202D3681C01D00EE06DB1E08E002829
:10220000E4D132462946204601F0B0F808B120203A
:102210006065A06830B109E084F8519084F850807E
:1022200003208EE72068C1688068009084F8519090
:1022300084F85080606D002883D0012081E7000081
:1022400070B5044690F8510001281CD1C9B1C2B143
:1022500094F85000012816D0012084F85000032083
:1022600084F85100002565652163A286E286A56396
:1022700065642564A587E587A068B0F5004F04D0A4
:102280000DE0012070BD022070BD2068016821F0C2
:10229000400101602068016841F480410160A16C47
:1022A00017480864A16C1748C863A16C1648C86435
:1022B000A06C0565E38E2268216B0C32A06CFEF7E2
:1022C000C1FF30B1606D40F01000606584F850507F
:1022D000D7E720680168490603D4016841F040014E
:1022E000016084F850502068416841F0200141604D
:1022F0002068416841F002014160002070BD00008B
:10230000FF32000809330008DD32000870477047CB
:1023100010B5401EB0F1807F01D3012010BD4FF0F9
:10232000E02460610F21601701F079FD0020A061B9
:1023300007202061002010BD7047704770B590F8ED
:102340003C20012A32D0012580F83C50022280F83E
:102350003D2002685368946823F070060B6833438D
:102360005360134B02689A4214D0B2F1804F11D0DF
:10237000104B9A420ED0104B9A420BD00F4B9A4200
:1023800008D00F4B9A4205D00E4B9A4202D00E4B0A
:102390009A4204D1496824F080031943916080F87F
:1023A0003D50002180F83C10084670BD022070BDF1
:1023B000000001400004004000080040000C004004
:1023C00000040140004001400018004010B5040026
:1023D00003D094F83D0010B107E0012010BD0020AB
:1023E00084F83C00204600F01FF8022084F83D00ED
:1023F000211D206801F024FA012084F8460084F8A9
:102400003E0084F83F0084F8400084F8410084F8DE
:10241000420084F8430084F8440084F8450084F8BE
:102420003D00002010BD000008B500680B4988423F
:1024300012D10B48016841F00101016000680022DF
:1024400000F00100009011461920FFF745FABDE8A1
:1024500008401920FFF732BA08BD00000000014013
:102460004438024090F83D10012901D00120704706
:10247000022180F83D100168CA6842F00102CA607A
:1024800000681149884214D0B0F1804F11D00F4933
:1024900088420ED00E4988420BD00E49884208D09F
:1024A0000D49884205D00D49884202D00C49884226
:1024B00004D1816801F00701062903D0016841F0C9
:1024C000010101600020704700000140000400404D
:1024D00000080040000C00400004014000400140A2
:1024E0000018004070B5044690F83C000025012813
:1024F00017D0012684F83C60022084F83D00206853
:10250000826822F0770222F47F42826008685028B5
:1025100038D00DDC20284FD005DC90B3102811D125
:102520004AE0022070BD302846D040280AD13BE066
:1025300060282FD070280DD0B0F5805F03D0B0F5A3
:10254000005F12D0012584F83D60002084F83C0033
:10255000284670BDCB68D1E90121206801F0E9F976
:102560002068816841F0770109E0CB68D1E9012159
:10257000206801F0DEF92068816841F480418160C3
:10258000E1E719E0CA684968206801F0A7FA50211C
:10259000206806E0CA684968206801F0B0FA602146
:1025A000206801F0D0F9CEE7CA684968206801F0D8
:1025B00095FA40212068F4E7226801461046F0E7CA
:1025C00070472DE9F04104460068C66805694FF080
:1025D0000007A90713D5B10711D5F91E0161012024
:1025E0002077206880698007204602D0FFF7E8FF47
:1025F00004E000F0BBF8204600F05EF9277768079A
:1026000016D5700714D521686FF004000861022008
:1026100020772068806910F4407F204602D0FFF7C1
:10262000CFFF04E000F0A2F8204600F045F927773C
:10263000280715D5300713D521686FF00800086109
:10264000042020772068C0698007204602D0FFF769
:10265000B7FF04E000F08AF8204600F02DF9277754
:10266000E80616D5F00614D521686FF01000086151
:10267000082020772068C06910F4407F204602D0EF
:10268000FFF79EFF04E000F071F8204600F014F917
:102690002777E80708D0F00706D021686FF001001F
:1026A0000861204600F072F9280608D5300606D5E4
:1026B00021686FF0800008612046FFF73DFE680644
:1026C00008D5700606D521686FF0400008612046E5
:1026D00000F06AF9A8060AD5B00608D521686FF09F
:1026E000200008612046BDE8F041FFF726BEBDE8A6
:1026F000F081000070B586B0044614216846FEF7EC
:1027000070F82068B0F1804F28D115480024016886
:1027100041F001010160016801F0010105910168CA
:1027200041F0020101600068022600F002000590FD
:1027300003200090CDE90164012569460948CDE9EF
:102740000345FEF757FE4FF440600090CDE9016469
:1027500069460548CDE90345FEF74CFE06B070BD5D
:10276000303802400000024000040240704770B55B
:10277000044690F83C0000260D4601280FD00120A9
:1027800084F83C006AB1042A1DD0082A2FD00C2AF4
:102790003FD00126002084F83C00304670BD022066
:1027A00070BD206801F0D8F82068816941F0080107
:1027B00081612068816921F004018161206881695B
:1027C0002A69114311E0206801F0F6F82068816958
:1027D00041F4006181612068816921F48061816137
:1027E000206881692A6941EA02218161D2E7206873
:1027F00001F018F92068C16941F00801C161206841
:10280000C16921F00401C1612068C1692A691143CD
:1028100011E0206801F03AF92068C16941F40061D3
:10282000C1612068C16921F48061C1612068C1690A
:102830002A6941EA0221C161ACE710B5040003D066
:1028400094F83D0010B107E0012010BD002084F88D
:102850003C00204600F01EF8022084F83D00211DB7
:10286000206800F0EDFF012084F8460084F83E0067
:1028700084F83F0084F8400084F8410084F8420066
:1028800084F8430084F8440084F8450084F83D004F
:10289000002010BD08B50068B0F1804F08D1054890
:1028A000016841F001010160006800F00100009042
:1028B00008BD0000403802407047000010B50446D3
:1028C00049B104290AD008290BD094F84100012805
:1028D0000AD0012010BD94F83E00F8E794F83F00BC
:1028E000F5E794F84000F2E70220B1B3042938D0AC
:1028F000082939D084F841000122206801F00CF841
:102900001B4920681B4A884201D0904203D1436C86
:1029100043F4004343642068884213D0B0F1804FF1
:1029200010D0154988420DD0144988420AD0144964
:10293000884207D0904205D01249884202D01249FD
:10294000884204D1816801F00701062903D001689B
:1029500041F001010160002010BDFFE784F83E0056
:10296000CAE784F83F00C7E784F84000C4E70000E6
:102970000000014000040140000400400008004045
:10298000000C00400040014000180040006804496D
:10299000884203D10348C168491CC16070470000E8
:1029A00000000140000000207047704770470000A1
:1029B000F8B5016804460868CA684B6910F00F0F43
:1029C0004FF0000559D003F0010602F49077374329
:1029D00065D0C10705D0D10503D5616C41F0010177
:1029E0006164410705D5D90703D0616C41F002014C
:1029F0006164810705D5D90703D0616C41F00401FA
:102A00006164010707D502F02001314303D0616CF6
:102A100041F008016164616C00293AD0800604D558
:102A2000900602D5204601F0ABF820684069616C41
:102A3000C0F38010090700D460B3204601F079F894
:102A400020684069400621D52068143050E8001FF6
:102A500021F0400140E80012002AF5D1E06BA8B156
:102A60006E490165E06BFEF7A1FA002811D0E06B1A
:102A7000016D01B0BDE8F040084783060FD593060D
:102A80000DD52046BDE8F84001F07AB82046FFF7A2
:102A90008DFFF8BD2046FFF789FF6564F8BD266B02
:102AA0002023012E7DD1C6067BD5D60679D50868B0
:102AB0004868009048694FF00206400641D5E16B36
:102AC000086840680004000CE8D0A28D8242E5D975
:102AD000E085C869B0F5807F2DD020680C3050E8C3
:102AE000001F21F4807140E80012002AF5D120680F
:102AF000143050E8001F21F0010140E80012002AC4
:102B0000F5D12068143050E8001F21F0400140E862
:102B10000012002AF5D184F84230256320680C3079
:102B200050E8001F21F0100140E80012002AF5D102
:102B3000E06BFEF7F2F96663A08DE18D401A81B279
:102B40002AE0A08DE18D401A81B2E08D0028A5D049
:102B50000029A3D020680C3050E8002F22F4907296
:102B600040E80027002FF5D12068143050E8002FEE
:102B700022F0010240E80027002FF5D184F842300E
:102B8000256320680C3050E8002F22F0100240E846
:102B90000023002BF5D166632046FFF706FFF8BD42
:102BA000FFE705062BD5150629D594F84100212805
:102BB000F5D1A068B0F5805F01D12069B0B1206A7D
:102BC000411C2162216800784860E08C401E0004AE
:102BD000000CE084E3D12068C16821F08001C1606D
:102BE0002068C16841F04001C160D8E7206A0088D0
:102BF000C0F308004860206A801C2062E5E74006B8
:102C0000CDD55006CBD5CA68204622F04002CA6016
:102C100084F8413000F060F9C1E70000233B000870
:102C200070B5040004D094F84100002510B106E00E
:102C3000012070BD84F84050204600F023F8242085
:102C400084F841002068C16821F40051C160204629
:102C500000F0F8FF2068016921F4904101612068CB
:102C6000416921F02A0141612068C16841F40051A5
:102C7000C1606564202084F8410084F842006563E7
:102C8000002070BDF0B587B0044614216846FDF7FA
:102C9000A8FD3C4F216800263B4A02230324072558
:102CA0003A48B94222D1384914310E6846F010062C
:102CB0000E60096801F010010591116841F00101F1
:102CC0001160116802AE01F0010105916102CDE9C8
:102CD0000013012186E832006946FEF78BFB0022D3
:102CE00011462520FEF7F8FD252023E0264FDFF8CA
:102CF000A0C01037614521D1396841F400313960F5
:102D0000396801F400310591116841F00101116049
:102D1000116801F0010105910C218DE84A00694616
:102D2000CDE90345FEF766FB002211462620FEF79B
:102D3000D3FD2620FEF7C2FD07B0F0BD1548814245
:102D4000FAD1386840F480203860386800F4802078
:102D50000590106840F0080010601068694600F0A7
:102D6000080005904FF440708DE849000A48CDE90D
:102D70000345FEF73FFB002211462720FEF7ACFD7E
:102D80002720D7E700100140303802400000024001
:102D90000044004000480040000C024090F84230DF
:102DA000202B01D00220704721B11AB10023036308
:102DB00000F0CEBF0120704730B41B4B02680021E9
:102DC0009A4201D119490AE0194B9A4202D1174996
:102DD000703104E0174B9A4201D11449E0310023CD
:102DE0000A780124212A0FD0232A19D0CD6E01F1AF
:102DF00008042A55CA6E521CCA66622A00DDCB66D8
:102E000030BC0122FFF7CABF4C60CD6E01F1080251
:102E10002124AC54CA6E521CCA660A441372EEE7EF
:102E200023220A72CC66EBE700440040D800002061
:102E300000100140004800402DE9F843044690F896
:102E400041001F4615460E46202802D00220BDE84C
:102E5000F8838EB185B100206064212084F84100A0
:102E6000FEF7B6FBA5848146E584A0684FF02008F4
:102E7000B0F5805F02D003E00120E8E7206910B1DF
:102E8000354600260EE000250CE08021204600F0AB
:102E90007AFFA0B9BDB115F8010B21684860E08C3C
:102EA000401EE084E08C4B464FF000020097002863
:102EB000EBD14FF04001204600F065FF40B184F8AF
:102EC00041800320C3E736F8020BC0F30800E4E7B3
:102ED00084F841800020BAE77047FEE7114808B542
:102EE000016841F400110160016801F400110091D2
:102EF000016841F4800101600068002200F4800054
:102F0000009011461120FEF7E7FC1120FEF7D6FCD9
:102F1000002211463B20FEF7DFFCBDE808403B20C5
:102F2000FEF7CCBC303802402DE9F04786B01421C2
:102F30006846FDF756FC4C480024016841F010013A
:102F40000160016801F010010591016841F0800104
:102F50000160016801F080010591016841F0010103
:102F60000160016801F001010591016841F0020171
:102F70000160016801F002010591016841F008015A
:102F80000160016801F008010591016841F040010C
:102F90000160016801F040010591016841F0040100
:102FA00001600068DFF8C48000F004000590002292
:102FB00020214046FEF706FBDFF8B49000225021A6
:102FC0004846FEF7FFFADFF8ACA000222021504669
:102FD000FEF7F8FA202701260097CDE9016469463B
:102FE00040460394FEF706FA50200090CDE90164B4
:102FF000694648460394FEF7FDF94FF4C07000900F
:103000004FF488100225CDE9010569464046FEF7D8
:10301000F1F9E8018DE8310069461748FEF7EAF951
:103020004FF4A0708DE8310069461448FEF7E2F9CC
:103030004FF4C8508DE8310069464846FEF7DAF98A
:103040000097CDE90164694650460394FEF7D2F932
:10305000002211461720FEF73FFC1720FEF72EFC3A
:1030600006B0BDE8F0870000303802400010024092
:103070000000024000040240001802400008024024
:103080000D4810B50B4901600C49416000214FF417
:1030900080428160C0E9031241618161C1610162C6
:1030A000FEF79CFA002803D0BDE81040FDF733BFBF
:1030B00010BD00000054004028020020A08601003E
:1030C000104810B50E4901604FF482714160002133
:1030D00002228160C0E90312012242615202826130
:1030E0001022C0E90721416281620A21C162FEF714
:1030F0003BFF002803D0BDE81040FDF70CBF10BD1A
:1031000000300140DC02002010B586B000241748D2
:10311000009401940294039404941349059401606B
:10312000A721C0E901144FF47A71C0E90314446186
:103130008461FFF74BF908B1FDF7EDFE4FF48050C5
:10314000009069460948FFF7CDF908B1FDF7E3FEA5
:10315000049404A905480594FFF7F0F8002801D06D
:10316000FDF7D9FE06B010BD000001409403002019
:1031700010B58AB0002407941C2168460894FDF716
:1031800030FB22484FF0804101605321C0E9011417
:1031900044F61F61C0E9031480218161FFF74DFBF4
:1031A00008B1FDF7B8FE079407A918480894FFF77F
:1031B000C5F808B1FDF7AFFE6020CDE90004029428
:1031C0000022694611480494FFF7D1FA08B1FDF7CF
:1031D000A2FE042269460D48FFF7C9FA08B1FDF7BF
:1031E0009AFE082269460948FFF7C1FA08B1FDF7BF
:1031F00092FE0C2269460548FFF7B9FA08B1FDF7BF
:103200008AFE0248FFF776FA0AB010BDDC03002000
:103210000C4810B50A4901604FF4E13141600021CA
:1032200081600C22C160C0E904128161C161FFF7B5
:10323000F7FC002803D0BDE81040FDF76CBE10BDC0
:1032400000100140240400200C4810B50A49016018
:103250004FF4E1314160002181600C22C160C0E97E
:1032600004128161C161FFF7DBFC002803D0BDE8D7
:103270001040FDF750BE10BD004400406C0400201B
:103280000C4810B50A4901604FF4E131416000215A
:1032900081600C22C160C0E904128161C161FFF745
:1032A000BFFC002803D0BDE81040FDF734BE10BDC0
:1032B00000480040B4040020FEE7FEE7704700002D
:1032C0000148FEF7D3BD0000DC02002010B5806B82
:1032D0000021C187C186FEF7C7FD10BD10B5806B08
:1032E00001684A6822F003024A60416D41F0100112
:1032F0004165012180F85110FEF7B6FD10BD10B5F3
:10330000806BFFF704F810BD38B50546846BFEF7F7
:103310005FF9024628680068C00523D42068416828
:1033200021F0200141602068416821F002014160E4
:103330006421204600F01AF818B1606D40F02000BA
:103340006065A068002118B92068C2688068009094
:10335000E186012084F85100606D18B12046FEF727
:1033600083FD38BD2046FEF7D1FF38BDF8B51546C0
:103370000E460B46009204460122022100F046F858
:10338000A0B9134813490068B0FBF1F04FF47A710B
:10339000484300906068B0F5827F0DD1334600222B
:1033A00080212046009500F031F870B1606D40F04A
:1033B000200060650320F8BD009830B1401E0090E9
:1033C00020688068C0430006F6D50020F8BD0000E4
:1033D0003C00002000366E0110B54FF40061C16062
:1033E000FEF7C2FD002803D0BDE81040FDF793BDF5
:1033F00010BD10B50021C160FEF7B6FD002803D056
:10340000BDE81040FDF787BD10BD00002DE9F84371
:103410001E46914688460446089DFEF7D9F8401B93
:10342000351AFEF7D5F8074625480068C0F3CB30BB
:10343000684338E0701C37D0FEF7CAF8C01BA842BA
:1034400003D215B1009860B32CE02068416821F0E8
:10345000E00141606068B0F5827F0BD1A068B0F5F3
:10346000004F02D0B0F5806F04D12068016821F0D0
:1034700040010160A06AB0F5005F09D120680168D1
:1034800021F4005101602068016841F4005101609D
:10349000012084F85100002084F850000320BDE88A
:1034A000F8830025401E00902068816838EA0100FA
:1034B00004D000204845BDD10020F0E70120F9E705
:1034C0003C000020704700000FB42DE9F05F8B46F0
:1034D000DDB205EB0B021099F02A05D20C9AC3F36A
:1034E00007242244F02A04D30120BDE8F01F5DF830
:1034F00014FBA0F12008012901D000275AE04FF465
:1035000016512E48FDF74BF923462A4658460C998A
:1035100000F02AF900210A46284E0F4617E018FB52
:1035200004230E9830F8133000200DE003FA00FC5D
:103530005FEA0C4C04D5DDF83CC026F811C001E070
:1035400026F81170401C491C8542EFDC521C944245
:10355000E5DC1B4E306820B91A48FFF73DFF01201B
:103560003060194910208861052000F03BFD15FBF3
:1035700004F24FF47A7311491248FEF7ADFD1BE0D7
:1035800018FB04710E98002630F811900C9800EB8F
:10359000070A0CE009FA06F0000407D50BEB060059
:1035A0001FFA8AF180B20F9A00F0FFF8761CB5423C
:1035B000F0DC7F1CBC42E3DC002096E7FC0400202A
:1035C000D4000020DC020020000002402DE9FE4F64
:1035D0009A46DDE90D8793460D460446DEB2DDF8D6
:1035E00030900DE0CDF80090CDE9018753465A4662
:1035F0002946FFF769FF012805D0701985B2641CC0
:1036000020780028EED1BDE8FE8FFEF7FDB800005F
:1036100030B593B030216846FDF7E3F814210CA8CB
:10362000FDF7DFF81D480025016841F08051016079
:10363000006800F0805011901948016841F4804101
:1036400001600068022400F4804011900120009085
:10365000000401908001CDE9064008AA0420A821B9
:1036600082E813000B906846FEF752FA08B172B672
:10367000FEE70CA90F2081E831004FF4A0500F9015
:103680004FF48050109005210CA8FEF757F9002840
:1036900001D072B6FEE713B030BD000040380240E2
:1036A000007000400248016841F4700101607047F9
:1036B00088ED00E031B50C4C2068012804D10B489E
:1036C000FFF797FE0020206009494FF480108861C1
:1036D000052000F087FC4FF0FF33012269460348C4
:1036E000FEF7FAFC38BD0000D4000020DC02002008
:1036F0000000024031B50A4C2068012804D1094875
:10370000FFF777FE00202060074910208861052020
:1037100000F068FC012269460248FEF791FD38BDC1
:10372000D4000020DC0200200000024031B50B4C28
:10373000206820B90A48FFF74FFE012020600949A0
:1037400010208861052000F04DFC4FF0FF3301226E
:1037500069460348FEF7C0FC38BD0000D4000020D5
:10376000DC020020000002402DE9F04104461E4624
:1037700017460D462A20FFF79DFF2046FFF7D6FF8C
:10378000E019401E80B2FFF7D1FF2B20FFF792FF18
:103790002846FFF7CBFFA819401E80B2FFF7C6FFEF
:1037A000BDE8F0412C20FFF785BF10B5144601237A
:1037B0001A46FFF7D9FF2046BDE81040FFF7B6BF15
:1037C0002DE9F0470646F02300211A460846FFF788
:1037D000CBFF144C206820B91348FFF7FDFD0120F2
:1037E0002060124FDFF8489000244FF496554FF0B8
:1037F00010084FF47A7A002027F81060401CA84285
:10380000FADBC9F81880052000F0ECFB53462A4685
:1038100006490548FEF760FC641C0C2CEBDBBDE898
:10382000F0870000D4000020DC020020FC0400200F
:10383000000002400148FEF7C4BE000094030020CF
:10384000F0B50268294D2A4E2A4FDFF8ACC02B4B49
:103850004FF0804EA84209D0704507D0B04205D045
:10386000B84203D0604501D0984203D122F07004E1
:103870004A682243A8421BD0704519D0B04217D0E5
:10388000B84215D0604513D0984211D01C4CA042CC
:103890000ED01C4CA0420BD01B4CA04208D01B4C9D
:1038A000A04205D01A4CA04202D01A4CA04203D12B
:1038B00022F44074CA6822434C6922F080022243F9
:1038C00002608A68C2620A688262A84201D0984295
:1038D00001D109690163012141610169C90703D06F
:1038E000016921F001010161F0BD0000000001400B
:1038F0000004004000080040000C004000040140AB
:1039000000400140004401400048014000180040D0
:10391000001C00400020004010B501F01F010123F1
:10392000046A8B409C430462036A8A401343036227
:1039300010BD10B5846842EA032224F47F440A4390
:103940002243826010BD826822F070020A4342F076
:103950000701816070470000F0B5026A036A23F036
:103960000103036243688469114E24F073050C68F7
:10397000104F2C4322F002058A682A43B04201D03E
:10398000B84205D122F00805CA682A4322F0040291
:10399000B04201D0B84205D14D6923F440731D43B4
:1039A0008B692B4343608461496841630262F0BDC7
:1039B0000000014000040140F0B5026A036A23F0F0
:1039C00010030362436884690D6824F4E64444EA02
:1039D00005248D6822F0200242EA05120F4D104E98
:1039E000A84201D0B04206D1CF6822F0800242EA5C
:1039F000071222F04002A84201D0B04207D14D691F
:103A000023F4406343EA85038D6943EA85034360F9
:103A10008461496881630262F0BD000000000140DA
:103A200000040140F0B5026A036A23F48073036264
:103A30004368C46922F4007224F073050C68124EC6
:103A40002C438D6842EA05220E4DA84201D0B042B7
:103A500006D1CF6822F4006242EA072222F4806293
:103A6000A84201D0B04207D14D6923F4405343EA44
:103A700005138D6943EA05134360C4614968C16356
:103A80000262F0BD000001400004014030B5036A4D
:103A9000026A22F4805202624268C4690D6824F40A
:103AA000E64444EA05248D6823F4005343EA0533D1
:103AB000084DA84202D0084DA84204D14D6922F415
:103AC000804242EA85124260C4614968016403622F
:103AD00030BD0000000001400004014010B5046A40
:103AE000036A23F001030362836923F0F00343EACE
:103AF000021324F00A020A438361026210BD10B56A
:103B0000036A046A24F010040462846923F0A003A9
:103B100024F4704444EA023243EA011182610162F2
:103B200010BD10B5806B0021C185C184FEF73EFF3A
:103B300010BD01680C3151E8002F22F4907241E869
:103B40000023002BF5D10168143151E8002F22F039
:103B5000010241E80023002BF5D1016B012909D1B5
:103B600001680C3151E8002F22F0100241E80023D7
:103B7000002BF5D1202180F842100021016370470D
:103B800008B590F84210222901D0022008BD8168B2
:103B90004FF48053994201D1026922B1826A99425D
:103BA0001BD049B10AE00268816A5268C2F3080278
:103BB0000A80816A891C08E0016971B1016849685D
:103BC00001F07F011170816A491C8162C18D491E1B
:103BD0000904090CC18503D01BE001684968F1E7BD
:103BE0000168CA6822F02002CA600168CA6822F42B
:103BF0008072CA6001684A6922F001024A6120218C
:103C000080F8421000214163026B012A03D0FFF7C4
:103C1000D3F8002008BD016301680C3151E8002F82
:103C200022F0100241E80023002BF5D101680A6858
:103C3000D20602D50A6849680091818DFEF7B5FE6B
:103C4000E7E7000070B5044600680169E26821F406
:103C5000405111430161A1682069E2690143606933
:103C6000104301432068C26849F20C639A430A4337
:103C7000C26020684169A26921F440711143416129
:103C800031492068884202D03049884202D1FDF78C
:103C9000FFFE01E0FDF7ECFEE26900231921642537
:103CA0003226B2F5004F626828D0A0FB0101930FC5
:103CB0009200FCF7E7FA0146B0FBF5F06FF018024E
:103CC000504301EB800006EB0010B0FBF5F000F074
:103CD000F002B1FBF5F002EB0012B1FBF5F06FF072
:103CE0001803584301EB800006EB0010B0FBF5F021
:103CF00000F00F0021681044886070BDA0FB010136
:103D000092185B41FCF7BEFA0146B0FBF5F00201E8
:103D1000B1FBF5F06FF01803584301EB800006EBA0
:103D2000C000B0FBF5F000F0F80002EB4002B1FB80
:103D3000F5F0584301EB800006EBC000B0FBF5F056
:103D400000F00700D6E70000001001400014014019
:103D500081628285C28500214164222180F842105F
:103D6000016921B10168CA6842F48072CA600168C1
:103D70004A6942F001024A610068C16841F02001CD
:103D8000C160002070472DE9F8431F4690460D465C
:103D90000446089E23E0701C21D0FDF719FCC01BCF
:103DA000B0421AD8CEB12068C168490717D5802D16
:103DB00015D0402D13D00168C94309070FD40168FD
:103DC0000025406800902046FFF7B3FE082060649D
:103DD00084F840500120BDE8F8830320FBE7206809
:103DE000006835EA000004D000204045D3D0002010
:103DF000F1E70120F9E700000148FEF7D9BD000016
:103E0000240400200148FEF7D3BD00006C0400200C
:103E10000148FEF7CDBD0000B4040020FEE709070D
:103E2000090E002804DB00F1E02080F80014704740
:103E300000F00F0000F1E02080F8141D70473038CA
:103E40000A2801D201207047002070472DE9F04771
:103E500043680BB90368E3B3DFF85C9100234FF4C8
:103E6000FA7809F1040A6FF0010C09F10C0550F819
:103E700023407CB300EE104AB8EEC00A02EB830484
:103E80000AEB830684ED030A02EB8304D2ED000AF9
:103E900094ED030A20EE801AD9ED000AC1EE201A33
:103EA00094ED051AB8EEC11A30EE410A92ED021AED
:103EB00020EE010A80EE201A31EE810A86ED000A1A
:103EC00094ED070AD4ED030AB8EEC00A30EE200ADA
:103ED00001E01FE021E0BDEEC00A10EE107AE761BC
:103EE000474501DDC4F81C80D4ED070A96ED000AB1
:103EF00092ED011AF8EEE00A01EE200A86ED000AC2
:103F0000BDEEC00A10EE106A45F8236043B1012BE4
:103F10000BD00EE00020BDE8F0879FED280AADE74A
:103F20002E68176B7E432E6003E06E68576B7E43EE
:103F30006E604668002E00DA7642322E15DA066888
:103F4000002E00DA7642322E0FDA55F82370566AC8
:103F5000B74201DD45F82360566A55F82370764272
:103F6000B7420EDA45F823600BE055F823600227CC
:103F7000022E02DD45F8237003E0664501DA45F8BC
:103F800023C094ED030ABDEEC00A84ED050A51F882
:103F9000234055F823603444D66AB44202DC966A62
:103FA000B44202DA41F8236001E041F823405B1C8F
:103FB000012B7FF75CAFAEE740000020000000005F
:103FC00042F2283148434FF0E021486100238B61E1
:103FD000012008610869C20701D0C003FAD50B614E
:103FE0008B61704700EB80004FF0E021400048619A
:103FF00000238B61012008610869C20701D0C0035A
:10400000FAD50B618B617047F0B58DB000286BD18C
:1040100001254FF6FF76354CCDE9016560680090CB
:104020000A22114632A02368FFF7D0FACDE90165D4
:10403000606800901E220A212FA02368FFF7C6FAAD
:10404000CDE901656068009032220A212CA0236826
:10405000FFF7BCFACDE901656068009046220A21AD
:1040600029A02368FFF7B2FA294F2AA103A83A68CA
:10407000FCF780F94FF62056CDE9016560680090A5
:104080000A22462103A82368FFF7A0FA21A103A86A
:104090007A68FCF76FF9CDE90165606800901E222F
:1040A000462103A82368FFF791FA1C4F19A103A822
:1040B0003A68FCF75FF9CDE901656068009032224B
:1040C000462103A82368FFF781FA12A103A87A68A2
:1040D000FCF750F9CDE90165606800904622114671
:1040E00003A82368FFF772FA0DB0F0BDC4000020EA
:1040F00050574D523100000050574D5232000000D1
:1041000050574D473100000050574D4732000000D6
:10411000280000202534642020000000200000201A
:10412000A2B0FDF779FBFFF773FAFEF7FDFEFEF78D
:10413000D5FEFEF7E9FFFFF71BF8FFF785F8FFF75D
:104140009FF8FEF79DFFFEF7BBFFFFF761F8012226
:10415000FD49FE48FEF722FEFB4901227039FC486A
:10416000FEF71CFEF8490122E039FA48FEF716FE78
:10417000F948FEF777F90021F848FEF79FFB042184
:10418000F648FEF79BFB0821F448FEF797FB0C214D
:10419000F248FEF793FBF14DF14C29682068C863A3
:1041A000296860680864A4F10806296830684863D3
:1041B00029687068886301222021EA48FDF702FA25
:1041C00001222021E848FDF7FDF900F0F1F9002077
:1041D000FFF7F6FA1422E54903A8FCF7AEFA4FF010
:1041E00001084FF4FC61CDE90118E14FD2221421FE
:1041F0007868009003A83B68FFF7E8F9DB491422D0
:10420000143108A8FCF799FA4FF6E071CDE90118CE
:1042100078680090AA22142108A83B68FFF7D6F915
:10422000A4F128070020C7F80480FFF7EDFEC64878
:1042300040F22E4AD83840F2C6294FF0000B1D90AC
:10424000C148416801290CD1C0F804B008300746C4
:10425000FCF754FA82B24FF47A733946BD48FEF740
:10426000EBFDB9487038416801297AD1C0F804B033
:104270000DAB1FAABFA10830FCF77CF91F980728D7
:1042800007D2DFE800F0A004070A0D1082000D98A5
:10429000206098E00D98606095E00D98306092E0A5
:1042A0000D9870608FE052208DF880004FF47A787E
:1042B0004346012220A9A748FEF7BEFDA84F0D984E
:1042C000283F386020B1012815D0022827D149E0C5
:1042D000A649142228310EA8FCF72FFA01214FF627
:1042E000E070CDE90101A248AA224168009103686B
:1042F00014210EA811E09D4914223C3113A8FCF7AB
:104300001CFA01214FF6E070CDE901019848AA227C
:10431000416800910368142113A8FFF757F9CDF8FD
:1043200078B097A11EA83A68FCF724F8434601220A
:104330001EA98848FEF780FD40F2A4604FF4617129
:10434000C4E900012A68D0632868016440F24C4146
:104350004FF42F70C6E900102A68516329688863FA
:1043600031E033E081491422503118A8FCF7E5F917
:1043700001214FF6E070CDE901017D48AA22416894
:1043800000910368142118A8C7E740F2A4614FF414
:104390006170C4E900102A68D1632968086440F29A
:1043A0004C404FF42F71C6E900012A685063286819
:1043B000816352208DF884004FF47A73012221A981
:1043C0006448FEF739FD0020FFF71EFE5E48E03826
:1043D0004168012914D1C0F804B0407A612802D0A4
:1043E000622805D00CE05E4B66A1183B1A4603E03C
:1043F0005B4B67A1103B1A46121D1D98FCF7BAF8DB
:10440000574F283FB968386808433ED140F2DC581E
:1044100048460129C4E90089F4D02A68C2F83C80E2
:10442000296808644FF44870FFF7CAFDC4E9008AA0
:10443000B96850460129E5D02968C1F83C8029684F
:1044400008644FF44870FFF7BBFD40F26C78C4E994
:10445000008ABA6840465146012AD3D02A68D06300
:10446000286801644FF44870FFF7AAFDC4E9008989
:10447000B8680128C6D02968C1F83C8029686068FE
:1044800008644FF44870FFF79BFDF868B84614289D
:10449000FFF6D6AED8F8080000287FF4D1AED8F8E1
:1044A0000000012819D12E493C4AA1F11800C8F892
:1044B0000CB0FFF7CBFC2A491839C1E900BB2968C9
:1044C0002068C863296860680864D8F80C1014294B
:1044D000DEDBD8F808000028DFD1D8F80000022879
:1044E000DBD11F495F462D4AA1F11800C8F80CB076
:1044F000FFF7ACFC1A492A4A0839A1F10800FFF776
:10450000A5FCDFF85C80A8F11808D8E90001CDE926
:104510000001D4E9002323A10DA8FBF72BFFC8F865
:10452000007008F10800C8F8047007604760296847
:104530003068486329687068886329682068C863A0
:104540002968606808647BE6B8010020B404002094
:10455000240400206C04002094030020DC030020CD
:104560002800002000100240000402402C480008EF
:10457000CC000020202325642025642100000000B9
:1045800025640000202361256420256421000000AB
:1045900020236225642025642100000054000020AF
:1045A0008C000020256420256420256420256400DB
:1045B00010B57A4900242020886140048861402099
:1045C00088611120FFF776F83A20FFF773F805208D
:1045D000FFF790F8C520FFF76DF81A20FFF78AF86B
:1045E0003620FFF767F82046FFF784F82B20FFF707
:1045F00061F80020FFF77EF80020FFF77BF800202D
:10460000FFF778F8F020FFF775F82B20FFF752F846
:104610000020FFF76FF80020FFF76CF80020FFF78D
:1046200069F8F020FFF766F8B220FFF743F805209D
:10463000FFF760F80520FFF75DF80020FFF75AF854
:104640003320FFF757F83320FFF754F8B720FFF770
:1046500031F80520FFF74EF8BB20FFF72BF83F207D
:10466000FFF748F8C020FFF725F82C20FFF742F8A5
:10467000C220FFF71FF80120FFF73CF8C320FFF727
:1046800019F80F20FFF736F8C420FFF713F82020A1
:10469000FFF730F8C620FFF70DF80120FFF72AF8E2
:1046A000D020FFF707F8A420FFF724F8A120FFF798
:1046B00021F8E820FEF7FEFF0320FFF71BF8E920B2
:1046C000FEF7F8FF0920FFF715F80920FFF712F8A9
:1046D0000820FFF70FF8E020FEF7ECFFD020FFF7EF
:1046E00009F80520FFF706F80920FFF703F809206D
:1046F000FFF700F80820FEF7FDFF1420FEF7FAFF91
:104700002820FEF7F7FF3320FEF7F4FF3F20FEF7E7
:10471000F1FF0720FEF7EEFF1320FEF7EBFF14205A
:10472000FEF7E8FF2820FEF7E5FF3020FEF7E2FF66
:10473000E120FEF7BFFFD020FEF7DCFF0520FEF7EB
:10474000D9FF0920FEF7D6FF0920FEF7D3FF082086
:10475000FEF7D0FF0320FEF7CDFF2420FEF7CAFFAF
:104760003220FEF7C7FF3220FEF7C4FF3B20FEF7E2
:10477000C1FF1420FEF7BEFF1320FEF7BBFF282069
:10478000FEF7B8FF2F20FEF7B5FF2120FEF792FFBE
:10479000BDE810402920FEF78DBF00000000024058
:1047A00010B500290AD00878002807D005487844B9
:1047B000FCF706FB002801D0002010BD0248784419
:1047C00010BD0000CA210000C22100004FF040705F
:1047D000E1EE100A704700005200000053544F50A1
:1047E0002020200000000000000000000000000069
:1047F00041637469766564000000000000000000F9
:104800000000000053544F502020202000000000E2
:1048100000000000000000004163746976656400D8
:104820000000000000000000000000004163746907
:104830007665640000000000000000000000000039
:104840004D4F4445203000000000000000000000F3
:10485000000000004D4F44452030000000000000E3
:1048600000000000000000004D4F444520310000D2
:104870000000000000000000000000004D4F444513
:1048800020320000000000000000000000000000D6
:1048900000061016000610160000000000000000C0
:1048A00001020304060708090000000001020304D6
:1048B00000000000000000000000000000000000F8
:1048C00000000000000000000000000000000000E8
:1048D000000000000000000C000C000C000C000C9C
:1048E000000C000C000C000C000C000C0000000C74
:1048F000000C0000000000000000001B001B001B5B
:10490000001B001B00000000000000000000000071
:1049100000000000000000000000000000008019FE
:10492000801980198019C07FC07F80190033C07F33
:10493000C07F00330033003300330000000000006C
:104940000000001E003F807580650074003C001E62
:1049500000078005806580658075003F001E0004AB
:10496000000400000000007000D840D8C0D880D9F2
:1049700000730006000C801BC036C066C046C0062F
:1049800080030000000000000000001E003F003314
:1049900000330033001E000CC03CC06680638061A1
:1049A0008063C03E801C0000000000000000000C7E
:1049B000000C000C000C000C0000000000000000C7
:1049C00000000000000000000000000000000000E7
:1049D000800000010003000600060004000C000C2B
:1049E000000C000C000C000C000400060006000384
:1049F00000018000002000100018000C000C0004D2
:104A00000006000600060006000600060004000C72
:104A1000000C0018001000200000000C002D003FCA
:104A2000001E003300000000000000000000000035
:104A30000000000000000000000000000000000076
:104A40000000000C000C000C000CC0FFC0FF000CAC
:104A5000000C000C000C0000000000000000000032
:104A60000000000000000000000000000000000046
:104A700000000000000000000000000C000C00041A
:104A8000000400080000000000000000000000001A
:104A9000000000000000001E001E000000000000DA
:104AA0000000000000000000000000000000000006
:104AB00000000000000000000000000000000000F6
:104AC0000000000C000C00000000000000000003CB
:104AD000000300030006000600060006000C000CA0
:104AE000000C000C00180018001800000000000066
:104AF0000000001E003F0033806180618061806D96
:104B0000806D8061806180610033003F001E000085
:104B10000000000000000006000E001E0036002607
:104B20000006000600060006000600060006000655
:104B300000060000000000000000001E003F80731F
:104B400080618061800100030006000C00180030C5
:104B50000060807F807F0000000000000000001CDB
:104B6000003E006300630003000E000E000380019E
:104B7000800180618073003F001E00000000000083
:104B800000000006000E000E001E001E001600367B
:104B900000360066807F807F000600060006000069
:104BA000000000000000007F007F006000600060E7
:104BB000006E007F80638001800180618073003F10
:104BC000001E0000000000000000001E003F8033B7
:104BD00080610060006E007F807380618061806111
:104BE0008033003F001E0000000000000000807FB6
:104BF000807F80010003000300060006000C000C0B
:104C0000000C000800180018001800000000000048
:104C10000000001E003F8063806180610021001E53
:104C2000003F8061806180618061003F001E000064
:104C3000000000000000001E003F007380618061E2
:104C400080618073803F801D800180610073003F20
:104C5000001E000000000000000000000000000036
:104C60000000000C000C000000000000000000002C
:104C70000000000C000C000000000000000000001C
:104C80000000000000000000000C000C000000000C
:104C9000000000000000000C000C000400040008EC
:104CA000000000000000000080008003000E0038BB
:104CB00000600038000E800380000000000000004B
:104CC0000000000000000000000000000000807FE5
:104CD000807F00000000807F807F000000000000D7
:104CE00000000000000000000000000000000000C4
:104CF00000400070001C000780010007001C0070CD
:104D00000040000000000000000000000000001F44
:104D1000803FC071C060C000C00180030007000E6A
:104D2000000C000C0000000C000C00000000000053
:104D30000000001E003F803180718063806F806DB5
:104D4000806D806F806700600032003E001C0000B4
:104D5000000000000000000E000E001B001B001BE6
:104D6000001B80318031803F803F8031C060C06057
:104D7000C0600000000000000000007C007E0063B6
:104D8000006300630063007E007E006380618061D9
:104D90008063007F007E0000000000000000001E15
:104DA000003F803180610060006000600060006052
:104DB000006080618031003F001E000000000000A4
:104DC0000000007C007F00638063806180618061FF
:104DD00080618061806100630063007E007C000070
:104DE000000000000000807F807F006000600060A5
:104DF0000060007F007F0060006000600060807FD6
:104E0000807F0000000000000000807F807F006045
:104E1000006000600060007F007F00600060006054
:104E20000060006000600000000000000000001E44
:104E3000003F8031806100600060006080638063BB
:104E4000806180618031803F001E00000000000012
:104E50000000806180618061806180618061807F0D
:104E6000807F8061806180618061806180610000FD
:104E7000000000000000003F003F000C000C000C90
:104E8000000C000C000C000C000C000C000C003F8F
:104E9000003F000000000000000080018001800150
:104EA000800180018001800180018001806180613A
:104EB0008073003F001E0000000000000000C06082
:104EC0008061006300660066006C0078007C00660C
:104ED0000066006380618061C06000000000000027
:104EE0000000006000600060006000600060006022
:104EF00000600060006000600060807F807F0000D4
:104F0000000000000000C071C071C07BC07AC06AA0
:104F1000C06AC06EC064C060C060C060C060C06075
:104F2000C060000000000000000080718071807986
:104F300080798079806D806D806D80658067806705
:104F40008067806380630000000000000000001E96
:104F5000003F003380618061806180618061806199
:104F6000806180610033003F001E000000000000EF
:104F70000000007E007F80638061806180618063CB
:104F8000007F007E00600060006000600060000044
:104F9000000000000000001E003F003380618061BF
:104FA0008061806180618061806580670033803FBF
:104FB000401E0000000000000000007E007F8063B3
:104FC000806180618063007F007E00660063006313
:104FD00080618061C0600000000000000000000EE1
:104FE000001F8031803100300038001E0007800330
:104FF000806180618031003F001E000000000000E1
:105000000000C0FFC0FF000C000C000C000C000CE6
:10501000000C000C000C000C000C000C000C00003C
:10502000000000000000806180618061806180611B
:105030008061806180618061806180618073003FF8
:10504000001E0000000000000000C060C060C060E2
:10505000803180318031001B001B001B001B000EC3
:10506000000E000E00040000000000000000C0C0A0
:10507000C0C0C0C0C0C0C0C0C0CC804C804C805E2E
:1050800080528052807380618061000000000000C7
:105090000000C0C0806080610033003B001E000C37
:1050A000000C001E001F003B80718061C0C000002A
:1050B000000000000000C0C0806180610033003348
:1050C000001E001E000C000C000C000C000C000C5C
:1050D000000C0000000000000000803F803F8001C5
:1050E000000300030006000C000C0018001800303C
:1050F0000060807F807F000000000000000F000F34
:10510000000C000C000C000C000C000C000C000C3F
:10511000000C000C000C000C000C000C000F000F29
:105120000000001800180018000C000C000C000C07
:10513000000600060006000600030003000300004E
:1051400000000000001E001E00060006000600060B
:10515000000600060006000600060006000600061F
:1051600000060006001E001E0000000C000C001EC1
:1051700000120033003380618061000000000000F5
:10518000000000000000000000000000000000001F
:10519000000000000000000000000000000000000F
:1051A000000000000000000000000000E0FF000020
:1051B000000000380018000C000000000000000093
:1051C00000000000000000000000000000000000DF
:1051D0000000000000000000000000000000001FB0
:1051E000803F80618001801F803F80618063807F7D
:1051F000C038000000000000000000600060006097
:105200000060006E007F80738061806180618061DA
:105210008073007F006E00000000000000000000AE
:10522000000000000000001E003F807380610060ED
:10523000006080618073003F001E000000000000DD
:1052400000008001800180018001801D803F80730B
:1052500080618061806180618073803F801D00007B
:105260000000000000000000000000000000001E20
:10527000003F00738061807F807F00608071003F0D
:10528000001E0000000000000000C007C00F000C5E
:10529000000C807F807F000C000C000C000C000CC8
:1052A000000C000C000C00000000000000000000DA
:1052B00000000000801D803F8073806180618061FC
:1052C00080618073803F801D80018063007F003E8D
:1052D00000000060006000600060006F807F8071EF
:1052E0008061806180618061806180618061000097
:1052F0000000000000000006000600000000003E64
:10530000003E000600060006000600060006000635
:10531000000600000000000000060006000000007B
:10532000003E003E000600060006000600060006DD
:105330000006000600060046007E003C00000060FB
:10534000006000600060806100630066006C007CAB
:105350000076006300638061C06000000000000010
:105360000000003E003E00060006000600060006A3
:105370000006000600060006000600060006000003
:10538000000000000000000000000000000080DDC0
:10539000C0FFC0CEC0CCC0CCC0CCC0CCC0CCC0CC78
:1053A000C0CC000000000000000000000000000071
:1053B0000000006F807F807180618061806180610A
:1053C000806180618061000000000000000000003A
:1053D000000000000000001E003F807380618061BB
:1053E000806180618073003F001E000000000000AB
:1053F0000000000000000000006E007F80738061EC
:105400008061806180618073007F006E0060006059
:10541000006000600000000000000000801D803F70
:10542000807380618061806180618073803F801DB6
:105430008001800180018001000000000000000068
:1054400000000067803F003900300030003000303D
:1054500000300030003000000000000000000000BC
:10546000000000000000001E803F80610060007F9F
:10547000803F80018061007F001E0000000000006E
:1054800000000000000800180018007F007F0018CE
:1054900000180018001800180018801F800F000066
:1054A000000000000000000000000000000080611B
:1054B0008061806180618061806180618063807FC4
:1054C000803D00000000000000000000000000001F
:1054D0000000C060803180318031001B001B001B48
:1054E000000E000E0006000000000000000000009A
:1054F00000000000000080DD80DD80DD00550055EB
:105500000055007700770022002200000000000014
:105510000000000000000000000080610033003344
:10552000001E000C000C001E0033003380610000E0
:1055300000000000000000000000000080618061A9
:10554000803100330033001B001B001B000E000ED7
:10555000000E001C007C0070000000000000000035
:105560000000C07FC07F800100030006000C00180F
:105570000030C07FC07F0000000000008003800773
:1055800000060006000600060006000E001C001CB7
:10559000000E0006000600060006000680078003D5
:1055A00000060006000600060006000600060006CB
:1055B00000060006000600060006000600060006BB
:1055C000000600060038003C000C000C000C000C2B
:1055D000000C000E00070007000E000C000C000C71
:1055E000000C000C003C003800000000000000002F
:1055F0000000000000008038807F004700000000AD
:10560000000000000000000000000000000000009A
:10561000000000000000000000000000000000008A
:10562000000000000000000000000000000000007A
:10563000000000000000000000000000000000006A
:10564000E003E003E003E003E003E003E003E00342
:10565000C003C003C001C001C001C001C0010000FF
:1056600000000000E003E003E00300000000000091
:10567000000000003C1E3C1E3C1E3C1E3C1E3C1E0E
:105680003C1E0000000000000000000000000000C0
:10569000000000000000000000000000000000000A
:1056A0000000000000000000CE01CE03DE039E03D8
:1056B0009C039C07FF3FFF7F3807380F780F780F58
:1056C000780EFFFFFFFFF01EF01CE01CE03CE03D09
:1056D000E03900000000000000000000FC03FE0FA5
:1056E000EE1FE01EE01EE01EE01EE01FE00FE007E0
:1056F000F003FC01FE01FE01FE01FE01FE01FE01C0
:10570000FE3DFC3FF00FE001E00100000000000062
:10571000033E07F78FE78EE79EE3BCE3B8E7F8E7C1
:10572000F0F7E03FC001FF03FF07F307F30FF31E9D
:10573000F33CF338F3787FF03FE000000000000016
:1057400000000000E007F80F780F781F781F781F1F
:10575000780FF00FE00F801FC37FC3FBE7F3F7F173
:10576000F7F0FFF07FF03EF87F7CFF3FEF1F000077
:105770000000000000000000E003E003E003E0039D
:10578000E003C003C00100000000000000000000B2
:105790000000000000000000000000000000000009
:1057A0000000000000000000000000003F007C003E
:1057B000F001E001C003C00780078007800F000FE1
:1057C000000F000F000F000F000F800F80078007F1
:1057D000C007C003E001F0017C003F000F000000A3
:1057E000007E001FC007C003E001F001F000F000E0
:1057F000F800780078007800780078007800F800E9
:10580000F000F000F001E001C003C007001F007EBF
:1058100000780000E003C003C001CE39FF3F7F3FA6
:1058200020037003F807780F3C1F380600000000C3
:105830000000000000000000000000000000000068
:105840000000000000000000000000000000000058
:1058500000000000C001C001C001C001C001C001C2
:10586000C001FFFFFFFFC001C001C001C001C001B6
:10587000C001000000000000000000000000000067
:105880000000000000000000000000000000000018
:105890000000000000000000000000000000E00325
:1058A000E003E003E003E001E001E001C001800368
:1058B00000000000000000000000000000000000E8
:1058C000000000000000FE3FFE3F0000000000005E
:1058D00000000000000000000000000000000000C8
:1058E00000000000000000000000000000000000B8
:1058F00000000000000000000000000000000000A8
:10590000000000000000E003E003E003E00300000B
:1059100000000000000000000F000F001E001E002D
:105920003C003C0078007800F000F000E001E0016D
:10593000C003C00380078007000F000F001E001E79
:10594000003C003C0078007800F00000F007F80F01
:105950007C1F3E3E1E3C1F7C1F7C0F780F780F780B
:105960000F780F780F780F781F7C1F7C1E3C3E3E0F
:105970007C1FF80FF007000000000000000000008E
:10598000F000F007F03FF03FF001F001F001F0010E
:10599000F001F001F001F001F001F001F001F0017F
:1059A000F001F001F001FF3FFF3F000000000000A8
:1059B00000000000E00FF83F7C3C3C003E003E0051
:1059C0003E003C003C007C00F800F001E003C00712
:1059D0008007000F001E003E003CFE3FFE3F00001F
:1059E0000000000000000000F00FF81F7C1C3E00CB
:1059F0003E003E003C003C00F800F00FF80F7C0039
:105A00003E001E001E001E001E003E007C1CF81FF3
:105A1000E01F000000000000000000007800F80017
:105A2000F800F801F803F807F807780F781E781ED9
:105A3000783C78787878FFFFFFFF7800780078006E
:105A400078007800780000000000000000000000EE
:105A5000FC1FFC1FFC1F001E001E001E001E001E5F
:105A6000E01FF81FFC007C003E003E001E003E00D0
:105A70003E003C007C1CF81FE01F000000000000FE
:105A800000000000FC01FE078E0F001F001E003EFC
:105A9000003C003CF83DFC3F3E7F1F7E0F3C0F3C2E
:105AA0000F3C0F3C0F3E1F1E3E1FFC0FF00300007B
:105AB0000000000000000000FF3FFF3FFF3F0F001D
:105AC0001E001E003C0038007800F000F000E001ED
:105AD000E001C003C0038007800F800F000F001F8C
